:1000000075817075D00012001712002C12004B126F
:1000100000C81201170106E479407E08F709DEFCEA
:10002000C3C201C202C203C2047900227438511C47
:100030005190740F511C51907401511C5190748057
:10004000511C51907406511C51902231A6514D20E3
:10005000037020026D512C540FF54031A6514D20F4
:10006000010620021E20035A512C540FF547E5408B
:1000700075F00AA42547F5400187F547E542B4002D
:1000800041E547512CF54231A6514D2002EC2003A9
:1000900031512C540FF54131A6514D20010620025B
:1000A0002120031A512C540FF547E54175F00AA49D
:1000B0002547F54131A6514D200107200204512C5E
:1000C00001C7517902019C22E5408541F0A842B860
:1000D0002B0825F0F54375462B22B82D1295F040DC
:1000E00006F54375462B22F404F54375462D22B8D8
:1000F0002A0AA4F54385F04475462B22B82FC3E5A0
:100100004160BFE54085F04784F543740AA4854704
:10011000F084F54575422B79007A007B007C00E580
:1001200046B42D04512C5190E54375F00A84A9F092
:1001300075F00A84AAF0FBE544B4000302015F7481
:10014000062975F00A84A9F024052A75F00A84AA04
:10015000F024022B75F00A84ABF02CFCD544E0ECC3
:100160007004C204216C2430512CD204EB70033093
:1001700004062430512CD204EA70033004062430E3
:10018000512CD204E970002430512CE545B4000212
:10019000219C742E512CE5452430512C1201A6B41B
:1001A000990002000622740FF5A075A00FE5A05477
:1001B0000FB40FF65190E5A0540FB40F0280F55123
:1001C00090E5A0540FB40F0280EA75A0EFE5A054AB
:1001D0000FB40F2175A0DFE5A0540FB40F1C75A05C
:1001E000BFE5A0540FB40F1775A07FE5A0540FB45E
:1001F0000F120201B4900299800D90029D80089028
:1002000002A180039002A5135003A380FAE493B4E3
:1002100099097401511C51900200062212023CF50A
:1002200090C2B0C2B1D2B25190C2B22212023CF519
:1002300090D2B0C2B1D2B25190C2B222D297C2B063
:10024000D2B1C2B2120290D2B22097F622B42B02DF
:100250004172B42D024172B42A024172B42F02419C
:1002600072B43D07C201C202D20322D201C202C24D
:100270000322C201D202C203227401511C51909088
:1002800002A9E493512C5190A3600280F551902271
:100290007B327CFFDCFEDBFA222F3938372A3635F9
:1002A000342D3332312B3D30994552524F5221007B
:00000001FF
